:100000000000000000000000192030222E222A22C9
:1000100083360C20BE190F20833EBE19833A031786
:10002000833EAD190411AE190A11AF193F11B01971
:1000300099211A2083181C205B2AEF2A352B64048F
:10004000B219B318C12A25110331642023202111CC
:1000500003313120A118A1130C2B722B852B932B6C
:100060007720A118992B5E2B772021127720472A21
:10007000772021127720232B912B000D033542206E
:1000800000041A29722B772021127720E12A772089
:10009000211277206C2A772021127720992B912B1F
:1000A000833AC4190304C413C41C441103315A20F5
:1000B000C418C41344111A29E804B2190304B3196B
:1000C000C12A232B722B77202511010D03354C20DB
:1000D000030D03354420070D033535200D0D033581
:1000E0004820020D03353920060D03352720A518B9
:1000F0002320972B010D03310200141103358F20AB
:100100001511161D03358F201A1689201B13033570
:100110008D209A1303359B138F209A189B18171163
:100120000331A8201111191B033198201011181B3D
:100130000330B520952B0204971897139818991837
:100140001F1F0331BD2014110335BD202C2BB420FB
:100150001311191B0331AE201211181B0330B520E7
:100160006D2B971898189918BD201816BA201913D6
:100170000335BD209813033599131411033502007C
:100180001511161D0335020016111B1B0331CA2061
:1001900015111A1B033002002C2B9A189B186D2B7B
:1001A0000200833EB218833AC333DE20C210C3106C
:1001B000C2130335C313833EB218B213833AC1335B
:1001C000E620C010C110C0130335C1134011411DFA
:1001D000833E03350B21B118B113833AC137F520A3
:1001E000033CC014C114833EEC20833A4111431BED
:1001F0000331FC204011421B033005214011C21B7A
:1002000041110330C31AC31B033CC115C015833E03
:10021000B112F520833E3211833A03351521C21005
:10022000C310C2130335C313833A4311C1194211DA
:10023000C0190200833EB1199F19981899189A188D
:100240009B18462160049019EA049119E804921958
:1002500003043121DC04901905049119F404921966
:10026000010493196004941894139519EA049619DB
:100270005121D00490190704542994134321E80410
:100280009019030454299518961851213111841995
:100290000404041B0334512102048A19FC04041EC3
:1002A00082199718971302009119F4049219010406
:1002B000931994180200A618241103317221182BE7
:1002C0000A047E2B85376C210A0469210C046921FC
:1002D0000504A619A4180200053366210532682119
:1002E000A418A413241A03317F214B2B0A047E2B5C
:1002F00085337D21A618A6136A210204A4190204DD
:10030000241F03318C213D2B0A047E2B05328A21C8
:10031000020469210304A4190304241F0331020009
:10032000A418442B0A047E2B053302000804A619E6
:1003300002008E31A2218E3DF0048119E929C929DC
:100340007928D12A4B30A7214B3CCB38463DCB32C4
:10035000AC21CB3E4B3BC63D3011BF198336B42197
:10036000833ABF19833EB721833EBF19833A2F11C9
:100370008A192E118419AD34C2212D178319BE1785
:100380003E1701002D178319833EBE173E17833A8F
:100390000100211202009C1303359D1303041D1B51
:1003A000E80403351C1B033002009C189D1834110F
:1003B000351D033502000104B41B00040330B51AD7
:1003C000B51B3411351D03310200A118952B632B89
:1003D00002005B292611221F033104222804231B5B
:1003E0000334F421A313020026110335FD21361234
:1003F000FD212611A519B6180200261103310200AD
:10040000A518B618B6130200A3182611A2190200E7
:10041000AC192C1103311522033C2B14010884194B
:10042000002BB02A00049F2A02000004B02A033CDB
:100430002B1401088419002B9F2A0200B219841979
:100440000304041B0334020000048A190504041E7B
:10045000821902000004522B0638020001045223C4
:100460000004522B8823B319331103313F22033C7C
:10047000321401088419002B8E2A00047D22000406
:100480008E2A033C321401088419002B7D22281186
:10049000020403314E228B2B28111E22281F033108
:1004A000552200048B2B28111E2228120200000462
:1004B0008B2B28111E223F0484198018841A0F04E4
:1004C000041F03315D22DF0484198018841A8F040D
:1004D000041F0335020065221E11833AC219C31896
:1004E000C2130335C3130304C019C118D128401126
:1004F000833E9E19B21920113322B119C13F400425
:10050000D119503B3404D219F504D3193111D4193F
:100510004004D019CB3ED03B4B3B0200B119C13F48
:100520004004D1194C3B3404CD19F504CE193111D6
:10053000CF194004CC194B3CCC3BCB380200AA1954
:10054000C13F4004D119503B3404D219F504D319EA
:100550002A11D4194004D019CB3ED03B4B3B0200AA
:10056000AA19C13F4004D1194C3B3404CD19F504FC
:10057000CE192A11CF194004CC194B3CCC3BCB38B7
:1005800002000104B21B00040330B31AB31B32167D
:10059000CC2233130335020078047A2B7D047A2BA6
:1005A000C1222911033502000A04271B0334A718AE
:1005B0000504271B0334DE220638DF22063CA7137E
:1005C00002000204281F0331E92201048B2B2811A9
:1005D0001E222812020002048B2B28111E22D6187C
:1005E000FF04C519C61885198618C3188D19C219B4
:1005F0008B1987188918020022212A2139213F21CD
:1006000003048A1904118413821E0001D20100011F
<<<<<<< HEAD
:10061000B9010001F50100010004A0189F189E18FF
=======
:10061000B9010001F60100010004A0189F189E18FE
>>>>>>> 16c2da78393177047bb18bbd3999d792aeac5337
:1006200097189713981899189A189B181A297623CF
:10063000D618FF04C5198519C3188D19C2198B194D
:10064000871889180200992B2011033129230104EE
:100650002A230004A0190200952B20110331322314
:10066000010433230004A01902000704C119F00497
:1006700081190E388E3D8E3B0200BF04C519FF0460
:100680008519C319C21802007F04C519FF04851912
:10069000C319C2180200EF04C519FF048519C31954
:1006A000C2180200B119A91931110335063C020024
:1006B000AA19A9192A110335063C0200882B000447
:1006C000522BA81802008E2B0004582BA8180200E9
:1006D0000004B02A00049F2A02001E11AB19201149
:1006E000082A02001E11B2192011332200048E2A9A
:1006F00000047D22B119B1127B230200AA19AA12AB
:100700007F230200840103010101A818063C0200B6
:10071000C618063C0200B119A8190200C618063C0A
:1007200002001F11020028111E22682B0200211155
:10073000020076230000000000000000000000001E
:1007400000000000000000000000000000000000A9
:100750000000000000000000000000000000000099
:100760000000000000000000000000000000000089
:100770000000000000000000000000000000000079
:00000001FF
